:020000040800F2
:10000000C8590020591D0008611D00081D02000884
:10001000651D0008671D0008691D0008000000003C
:100020000000000000000000000000006B1D000840
:100030006D1D0008000000006F1D00088508000805
:10004000731D0008731D0008731D0008731D000850
:10005000731D0008731D0008731D0008731D000840
:10006000731D0008731D0008731D0008731D000830
:10007000731D0008731D0008731D0008731D000820
:10008000731D0008731D0008731D0008731D000810
:10009000731D0008731D0008731D0008731D000800
:1000A000731D0008731D0008731D0008731D0008F0
:1000B000731D0008731D0008731D0008731D0008E0
:1000C000731D0008731D0008731D0008731D0008D0
:1000D000731D0008190A0008731D0008731D00082D
:1000E000731D00089B1E0008731D0008731D000887
:1000F000731D0008731D0008731D0008731D0008A0
:10010000731D0008731D0008731D0008731D00088F
:10011000731D0008731D0008731D0008731D00087F
:10012000731D0008731D0008731D0008731D00086F
:1001300000F002F800F063F80AA090E8000C824496
:100140008344AAF10107DA4501D100F058F8AFF273
:10015000090EBAE80F0013F0010F18BFFB1A43F0A5
:100160000103184740460000604600000A444FF073
:10017000000C10F8013B13F0070408BF10F8014B06
:100180001D1108BF10F8015B641E05D010F8016B4B
:10019000641E01F8016BF9D113F0080F1EBF10F8AF
:1001A000014BAD1C0C1B09D16D1E58BF01F801CBD2
:1001B000FAD505E014F8016B01F8016B6D1EF9D555
:1001C0009142D6D37047000000230024002500266A
:1001D000103A28BF78C1FBD8520728BF30C148BFAA
:1001E0000B6070471FB503F049FF04000020002199
:1001F00004F054F8401C60601FBD10B510BD04F041
:1002000019F81146FFF7EEFF00F02DF804F037F86B
:1002100003B4FFF7F2FF03BC04F038F870B5002513
:100220003948016839A000F00FFE3748001D016809
:1002300039A000F009FE34480830016839A000F008
:1002400003FE31481430016839A000F0FDFD07E0DD
:10025000681CC5B2002400E0641C38488442FBD30B
:10026000052DF5DB70BD10B54FF4407002F054FF62
:10027000642000F010FB4FF4E13000F023FC02207A
:1002800000F0B1FB2E49A1F5A04002F046F82D4840
:1002900001F0FBFD0D212C4800F0C1F901F02AFF0F
:1002A000002010BD10B54FF4803003F019F903F0B1
:1002B00056F90446012C0FD103F086F900BF39200E
:1002C00003F031F90028FAD0022003F080F900BFD2
:1002D00003F086F90828FBD110BD10B5194890F835
:1002E000200078B119A000F0AFFD0121084603F00D
:1002F0008EF8FFF7D7FF0020124981F8200017A0E1
:1003000000F0A2FD10BD000028ED00E0434653526E
:100310003A2538580D0A0000484653523A253858B5
:100320000D0A0000444653523A2538580D0A000081
:10033000414653523A2538580D0A0000FFFF1F006E
:1003400034510020B051002034510020676F746F89
:100350002073746F70206D6F64650A0077616B6540
:100360002075702066726F6D2073746F70206D6FD2
:1003700064650A0070B505460E46307801280AD03B
:1003800002280DD0072810D1A9A000F05DFDAD48CE
:10039000A86003240DE0ACA000F056FD012408E0A5
:1003A000ADA000F051FD012403E0AF48A860042493
:1003B00000BF00BF204670BD70B505460E463078C0
:1003C000012811D0022814D0032806D00E2815D1F8
:1003D000A6A000F039FD012414E0A8A000F034FD2F
:1003E000AC48A86003240DE0ABA000F02DFD012473
:1003F00008E0ADA000F028FD012403E0AE48A860AD
:10040000042400BF00BF204670BD70B505460E46EF
:100410003078012812D0022815D00B2802D00F28DE
:1004200016D106E0A5A000F00FFDA848A86003249F
:1004300012E0A7A000F008FD01240DE0A8A000F044
:1004400003FD012408E0AAA000F0FEFC012403E063
:100450009948A860042400BF00BF204670BD70B555
:1004600005460E46307801280AD002280DD008280B
:1004700010D1A3A000F0E8FCA648A86003240DE07A
:10048000A5A000F0E1FC012408E0A7A000F0DCFC3E
:10049000012403E07448A860042400BF00BF204684
:1004A00070BD70B505460E46307801280AD0022886
:1004B0000DD0092810D1A0A000F0C6FC6148A860AA
:1004C00003240DE0A1A000F0BFFC012408E0A3A0DC
:1004D00000F0BAFC012403E0A448A860042400BF93
:1004E00000BF204670BD70B505460E463078012825
:1004F00014D0022817D0052802D0062818D106E00B
:100500009BA000F0A1FC5848A860032414E09DA023
:1005100000F09AFC6D48A86003240DE09EA000F056
:1005200093FC012408E0A0A000F08EFC012403E06D
:100530008E48A860042400BF00BF204670BD70B57F
:1005400005460E463078012811D0022814D0032821
:1005500006D00D2815D198A000F076FC012414E0F7
:1005600099A000F071FC9E48A86003240DE09DA0B6
:1005700000F06AFC012408E09EA000F065FC012464
:1005800003E04D48A860042400BF00BF204670BDB2
:1005900070B505460E463078032823D004DC0128C8
:1005A00017D002282AD124E0042806D00C2825D10F
:1005B00094A000F049FC012424E04FF0E020816980
:1005C00097A000F041FC6421284601F054FD01246D
:1005D00018E096A000F038FC6421284601F04BFD9D
:1005E00001240FE096A000F02FFC6048A8600324CF
:1005F00008E09AA000F028FC012403E09C48A860D1
:10060000042400BF00BF204670BD70B504460D46EF
:1006100098A000F019FC2848A060032070BD70B5B8
:1006200004460D469649204602F09AFC70BD000033
:10063000426F6D625F42313A204231315F53494728
:100640000A0000005F040008426F6D625F423120C3
:10065000656E7465720A0000426F6D625F42312000
:10066000657869740A000000B9030008426F6D6282
:100670005F423A2042315F5349470A00426F6D6240
:100680005F423A53544D5F494E49545F5349470ABC
:100690000000000075030008426F6D625F42206534
:1006A0006E7465720A000000426F6D625F422065E1
:1006B0007869740A0000000091050008426F6D62BD
:1006C0005F433A2043315F5349470A00A3040008BF
:1006D000426F6D625F433A2043325F5349470A00DD
:1006E000426F6D625F4320656E7465720A000000A0
:1006F000426F6D625F4320657869740A00000000F4
:10070000426F6D625F42323A204232315F53494755
:100710000A0000000B040008426F6D625F42322045
:10072000656E7465720A0000426F6D625F4232202E
:10073000657869740A000000426F6D625F41323A69
:10074000204132315F5349470A000000426F6D6219
:100750005F413220656E7465720A0000426F6D62FF
:100760005F413220657869740A0000003F05000887
:10077000426F6D625F41313A204131315F534947E9
:100780000A000000426F6D625F41313A2041313210
:100790005F5349470A000000426F6D625F4131209C
:1007A000656E7465720A0000426F6D625F413120B0
:1007B000657869740A000000426F6D625F413A20FB
:1007C00041315F5349470A00426F6D625F413A53BE
:1007D000544D5F494E49545F5349470A0000000099
:1007E000E7040008426F6D625F4120656E747279A4
:1007F0000A000000426F6D625F4120657869740AEB
:1008000000000000426F6D625F6163746976653A53
:10081000206163746976655F6F6B5F7369670A0057
:1008200074696D656F75743A25640A00426F6D6274
:100830005F61637469766520656E7472790A000081
:10084000426F6D625F6163746976653A2053544DFF
:100850005F494E49545F5349470A0000426F6D6239
:100860005F61637469766520657869740A000000C9
:10087000172B0008426F6D625F696E69740A000091
:100880000B06000810B501F0D5FB3E480068401C7F
:100890003C49086010BDF0B585B00446684602F0DA
:1008A000FCFE0098C008B0FBF4F52946B1F1807F4A
:1008B00000D31BE021F07F40401E4FF0E02250614A
:1008C00050170F22002806DA13012F4E00F00F07F1
:1008D0003F1FF35502E013012C4E335400BF00209C
:1008E0004FF0E02290610720106100BF6FF004001C
:1008F00002F062FC26490098B0FBF1F0C0F3C7009B
:10090000244908700846007800EB4001C1EBC01094
:100910004FF6FF7101EAC0001F49088005B0F0BD25
:1009200030B503464FF0E0256C690022A96900BF8D
:100930004FF0E025A8698842FAD0884202D20D1A09
:100940002A4402E065182D1A2A4401469A42EFD93A
:1009500000BF00BF30BD10B5044634B10E4A128846
:1009600004FB02F1481EFFF7DBFF10BD10B5044683
:1009700034B1084A127804FB02F1481EFFF7D0FF99
:1009800010BD00001C00002018ED00E000E400E0B5
:1009900040420F00180000201A0000201B48806908
:1009A00040F00500194988611948006820F00F00DF
:1009B000174908600846006840F00B0008601448BA
:1009C0000830006840F480701149083108600F4811
:1009D000406820F070600D4948600846406840F06B
:1009E000A0604860704701464906084A926942F093
:1009F0000102064B9A61074A526822F0E062054BF9
:100A00005A601A4652680A435A6070470010024002
:100A1000040801400000014010B556480088C4B2E7
:100A2000204655490968884710BD10B504460D2C6D
:100A300013D100205149B1F84210504A5054104689
:100A4000B0F842001146A1F840000020A1F8420091
:100A50000A214B4801F0D8FA12E00A2C10D047487E
:100A6000B0F8420045490C54B1F84210481CC11777
:100A700000EB91618911A0EB8111404AA2F842106C
:100A800010BD70473C490860704700BF3949091FD5
:100A9000098811F0400FF9D036490880704700BF2F
:100AA0003448001F008810F0200FF9D03148001F93
:100AB000008820F020002F49091F0880081D0088A9
:100AC000C0B2704710B586B004462E48806944F223
:100AD000040108432B4988612B48006820F47F609B
:100AE000294908600846006840F40B600860264801
:100AF0000830006840F4C06023490831086002945F
:100B00000020ADF80C00ADF80E00ADF81000ADF807
:100B100014000C20ADF8120002A91648001F02F0C4
:100B200076FF01211348001F02F0FDFF012240F271
:100B300025511048001F03F002F825208DF804000D
:100B40000D208DF8050000208DF8060001208DF89D
:100B5000070001A802F0E5FAAFF23110FFF792FFAB
:100B6000AFF2D90009490860AFF2CD00084908602A
:100B700006B010BD04380140200000206C51002058
:100B8000B051002000100240040801402400002061
:100B90002C00002010B504460A2C02D10D20FFF7CE
:100BA000F9FFFE48006848B1FC4800680470FB4843
:100BB0000068401CF9490860204610BDF8480068EC
:100BC00018B12046F649096888472046F5E770B510
:100BD0000446254603E014F8010BFFF7DBFF2078FD
:100BE0000028F8D1601B70BD2DE9F04105460C4688
:100BF0002646EB480768056003E014F8010BFFF791
:100C0000C9FF20780028F8D1E5480760A01BBDE89F
:100C1000F0812DE9F34F87B00546002600BF15F897
:100C2000014B04B90BE1252C04D02046FFF7B2FF9D
:100C3000761CF4E74FF0000815F8014B302C04D176
:100C40004FF0010815F8014B05E02D2C03D14FF0B2
:100C5000020815F8014B4FF0000B07E00BEB8B007F
:100C600004EB4000A0F1300B15F8014B302C01DBF8
:100C7000392CF3DD6C2C01D04C2C03D148F0040846
:100C800015F8014B04B9DAE02746612F02DBA7F122
:100C90002000C7B24F2F46D006DC422F40D0432F52
:100CA00035D0442F49D141E0532F04D0552F3ED0A9
:100CB000582F42D13EE00898006800900898001D27
:100CC00008904FF0000A01E00AF1010A009810F8BC
:100CD0000A000028F8D103E02020FFF75BFF761C14
:100CE00018F0020F04D150460AF1010A5845F3D317
:100CF0000098FFF76CFF064403E02020FFF74AFF4F
:100D0000761C50460AF1010A5845F6D387E7089940
:100D100011F8042BD0B20891FFF73CFF761C7EE758
:100D2000022006900EE0082006900BE000BF0A208B
:100D3000069007E01020069004E02046FFF72AFF07
:100D4000761C6CE700BF18F0040F05D00898006807
:100D50000899091D08910CE0442F05D108980068F6
:100D60000899091D089104E0089800680899091D70
:100D700008910590442F08D1059810F0004F04D039
:100D800005984042059048F008084FF0000900BF60
:100D9000DDE90501B0FBF1F201FB1200C7B2DDE9AC
:100DA0000501B0FBF1F00590092F06DD782C01D18B
:100DB000272000E007203844C7B207F13000C2B254
:100DC000484609F1010901A90A54059810B1B9F181
:100DD000100FDDD318F0080F05D02D22484609F179
:100DE000010901A90A54CA4618F0010F01D03020A8
:100DF00000E02020074603E03846FFF7CBFE761CD4
:100E000018F0020F04D150460AF1010A5845F3D3F5
:100E100000BFA9F10101894601AA505CFFF7BAFEA3
:100E2000761CB9F1000FF4D103E02020FFF7B2FEE9
:100E3000761C50460AF1010A5845F6D3EFE600BF8A
:100E4000304609B0BDE8F08F0FB438B505A8009062
:100E500000990498FFF7DDFE04460020009020462C
:100E600038BC5DF814FB0FB438B504464B48046039
:100E700006A8009000990598FFF7CBFE05460020D4
:100E8000009046490968087044490860284638BC03
:100E90005DF814FB0FB4F8B50446414806680460D9
:100EA00008A8009000990798FFF7B3FE05460020B8
:100EB00000903B4806602846F8BC5DF814FB2DE91D
:100EC000F05F07468B4615469A46594635A0FFF710
:100ED000BBFFBAF1010F06D0BAF1020F22D0BAF16E
:100EE000040F35D129E03E46002404E0315D2FA0F7
:100EF000FFF7AAFF641CAC42F8DB2020FFF74AFE94
:100F000000240CE0315D202904DB315D7E2901DC09
:100F1000315D00E02E210846FFF73CFE641CAC4228
:100F2000F0DB15E0B84600BF38F8021B21A0FFF740
:100F30008BFF681E0500F7D10AE0B94600BF59F8DB
:100F4000041B1EA0FFF780FF681E0500F7D100BF3D
:100F500000BF0A20FFF71EFEBDE8F09F2DE9F0411B
:100F600006460F4600250FE0082C05D125B16D1E61
:100F700014A0FFF72CFE07E0202C05DB781EA8420A
:100F800002DD28466D1C34540F4800688047044633
:100F90000D28E9D100207055012017E0280000201D
:100FA000240000202530386C5820000020253032E5
:100FB000580000002025303458000000202530382B
:100FC0004C580000082008002C000020BDE8F081EB
:100FD0002DE9F04104460D4616463C48076804607A
:100FE00031462846FFF7BAFF80463848076040463A
:100FF000BDE8F08170B502460D460026002028604D
:1010000000E0521C11782029FBD02D2903D10126A4
:10101000501C0246017830291DD1501C024601782F
:10102000622906D0782909D11023501C0246017884
:1010300010E00223501C024601780BE0202901DC5D
:10104000012070BD302901DB392901DD0020F8E7DE
:10105000082300BF06E0302901DB392901DD00202B
:10106000EFE70A23002418E0612902DBA1F1200048
:10107000C1B2A1F13000C1B2112905DBC81FC1B254
:10108000092901DC0020DCE7994201DB0020D8E7D8
:1010900004FB0314501C024601782029E4DC06B14D
:1010A00064422C600120CCE700B587B0142102A86F
:1010B000FFF754FF01A902A8FFF79CFF10B94FF0FA
:1010C000FF300190019807B000BD00002C00002007
:1010D0002DE9FF5F80468B4616464746012E05D018
:1010E000022E03D0042E01D0BDE8FF9F102090FBFC
:1010F000F6F50BEB0500401E90FBF5F001909BFB15
:10110000F5F005FB10B000900A20FFF743FD4FF00B
:1011100000095FE00198401E484502D1009800B1E7
:10112000009D414662A0FFF78FFE012E04D0022EE3
:101130000ED0042E27D119E0BA46002405E01AF893
:1011400004105DA0FFF780FE641CAC42F7DB1AE0E0
:101150000397002407E0039830F8021B039058A07F
:10116000FFF772FE641CAC42F5DB0CE00297002432
:1011700006E0029850F8241053A0FFF765FE641CA7
:10118000AC42F6DB00BF00BF2020FFF703FD2020AC
:10119000FFF700FDBA4600240FE01AF804102029DA
:1011A00006DB1AF804107E2902DC1AF8041000E0AD
:1011B0002E210846FFF7EEFC641C05FB06F0A0425A
:1011C000EBDC0A20FFF7E6FC05FB068805FB06774B
:1011D00009F10109019881459CDB00BF84E72DE9F5
:1011E000FF4F83B0804691461C46002700200290A6
:1011F0004546049E3EE0042C11D1D5F800A0D6F857
:1012000000B0DA450AD033465246294630A0CDF820
:1012100000B0FFF719FE0120029030E027E0022C19
:1012200011D1B5F800A0B6F800B0DA450AD03346BF
:101230005246294633A0CDF800B0FFF705FE012045
:1012400002901CE013E0012C11D195F800A096F853
:1012500000B0DA450AD033465246294638A0CDF8C8
:1012600000B0FFF7F1FD0120029008E000BF7F1CF5
:1012700025442644B9F10000A9F10109BBDC00BFF7
:10128000012F01D13BA000E03BA00346042C01D17B
:101290003AA004E0022C01D13AA000E03CA00246B2
:1012A00039463DA0FFF7D0FD029807B0BDE8F08FAA
:1012B000253038583A000000202530325800000010
:1012C0002025303458000000202530385800000018
:1012D000776F726420617420307825303878202848
:1012E0003078253038782920213D20776F726420AE
:1012F00061742030782530387820283078253038CF
:1013000078290A0068616C66776F726420617420C6
:1013100030782530387820283078253034782920E6
:10132000213D2068616C66776F72642061742030A3
:1013300078253038782028307825303478290A000C
:1013400062797465206174203078253038782028DF
:101350003078253032782920213D2062797465204B
:101360006174203078253038782028307825303264
:1013700078290A000000000073000000776F726493
:101380000000000068616C66776F72640000000006
:101390006279746500000000546F74616C206F66A0
:1013A0002025642025732573207765726520746875
:1013B000652073616D650A0070B5054625B1012D84
:1013C00017D0022D31D12CE0E1A0FFF73DFD002424
:1013D00007E0EA4850F83410E9A0FFF735FD601C3B
:1013E000C4B2E84800788442F3DBE7A0FFF72CFDA5
:1013F0001BE0F1A0FFF728FD00240AE0DF4850F8C9
:10140000342000EBC4004168F6A0FFF71DFD601C0E
:10141000C4B2DC4800788442F0DBE7A0FFF714FD9B
:1014200003E0F348FFF710FD00BF00BF70BD2DE9DA
:10143000F04194B00746884600244146384602F001
:10144000F1FC054608E04DF82450601C44B24146CA
:10145000681C02F0E7FC0546002DF4D1022C20D1D7
:101460000098461C0099481CE2A102F0EAFC58B121
:101470000099481C2A2102F0CBFC18B1012014B0BD
:10148000BDE8F0810020FAE706E03078202801D19D
:10149000761C01E00120F2E70198B042F5D100206E
:1014A000EDE7032C06D1D5A1009802F0CAFC08B1E3
:1014B000601FE4E7601E40B2E1E770B504460D46E8
:1014C0000BE002F065FC00682178405C10F0010F31
:1014D00001D0641C01E0002070BDAC42F1D10120BC
:1014E000FAE72DE9F74FA0B015460026DDE9200107
:1014F00002F098FC81460AE002A840F82690701C91
:1015000046B209F10100219902F08CFC8146B9F143
:10151000000F01D01E2EEFDB1EB94FF0FF30286008
:101520008BE1012E02D1F01E286086E1029800783E
:10153000282876D1701E02A951F8200000782928A9
:10154000F7D100202860022E18D10298441C10E028
:101550002078202803D1641C0020286009E00120A5
:1015600028600299481C0022114602F019FC6860AC
:1015700002E00398A042EBD100BF57E14FF0000812
:1015800001240BE002A850F824000078222803D19F
:1015900008F1010000F0FF08601CC4B2B442F1DBA6
:1015A000B8F1000F20D1002406E0002002A951F874
:1015B00024100870601CC4B2B442F6DB00240CE0B6
:1015C00002A951F82410481C0022114602F0E8FB41
:1015D000611C45F82100601CC4B2B442F0DB701EEF
:1015E000286023B0BDE8F08F404608EBD071491069
:1015F000B8EB410103D06FF001002860F1E701274B
:101600004FF0000A00240AE14FF0010B03E1BAF1A8
:10161000000F07D0BAF1010F3DD0BAF1020F39D156
:101620004BE007E1ACB902A9601C51F8200000783A
:10163000222804D1601CC4B24FF0020A2AE002A999
:10164000601C51F8200000782C2823D14FF0010AAB
:1016500020E002A850F8240000782C281AD102A912
:10166000601C51F8200000782C2805D0601C51F82F
:1016700020000078292802D14FF0010A0AE002A9CF
:10168000601C51F820000078222803D1601CC4B2ED
:101690004FF0020ABEE002A951F82410481C0022B3
:1016A000114602F07DFB45F82700781CC7B2601C8C
:1016B000C4B24FF0000BDA46ACE002A850F82400A8
:1016C000401C45F82700781CC7B20020019098E024
:1016D000601CC4B201E0601CC4B202A850F824002F
:1016E00000782228F7D1601CC4B2701EA04208DC2A
:1016F000012001900021601E02AA52F82000017012
:1017000083E002A850F8240000782C2878D102AA9F
:1017100052F82410621E02AB53F82220501CFFF72F
:10172000CCFE40B1012001900021601E02AA52F8B7
:101730002000017069E0601CC4B201E0601CC4B20A
:1017400002A850F82400007822285AD0F6E757E083
:101750002D2D2D2D2D2D2D2D2D2D2D2D2D20667545
:101760006E6374696F6E206C697374202D2D2D2D3E
:101770002D2D2D2D2D2D2D2D2D2D0A00300000204D
:1017800025730A00A80000202D2D2D2D2D2D2D2D87
:101790002D2D2D2D2D2D2D2D2D2D2D2D2D2D2D2D79
:1017A0002D2D2D2D2D2D2D2D2D2D2D2D2D2D2D2D69
:1017B0002D2D2D0A000000002D2D2D2D2D2D2D2D30
:1017C0002D2D2D2D2D2D2D2D2D2D2D2D2D2D2D2D49
:1017D0002D2D2D2D2D2D2D2D2D2D2D2D2D2D2D2D39
:1017E0002D2D0A003078253038783A2025730A00EC
:1017F000C8420008766F6964000000002E2E0000C9
:1018000000BF019800283FF463AF00BF4FF0000B0A
:10181000DA4600BF00BFBBF1000F7FF4F8AE701EC8
:10182000A0423FF7F1AE781E286000BF0020029969
:10183000087002E06FF00100286000BFD1E62DE9DA
:10184000F04107460D462821384602F0E1FA0446E9
:10185000641E00E0641E20782028FBD02078092830
:10186000F8D0264600E0641E2078202805D0207895
:101870002A2802D020780928F5D1641C301B401C8E
:1018800028702046BDE8F0812DE9F04F91B08046E8
:1018900045464FF0000900E06D1C28782028FBD059
:1018A0000B2106A802F0BFFB06AA93A12846FFF76A
:1018B00018FE0698801C05D191A0FFF7C5FA11B05B
:1018C000BDE8F08F0698401C19D100240EE0284690
:1018D00002F0C9FA07468E4850F834103A462846B6
:1018E00002F0E0FA00B903E0601CC4B2032CEEDBA6
:1018F00000BF032C38DB87A0FFF7A6FADFE703243D
:1019000025E0834951F8340005A9FFF798FF834685
:10191000284602F0A8FA2844471E00E07F1E3878C7
:101920002028FBD0781B401C00F0FF0A9DF8140013
:10193000824501DD504601E09DF81400024629462B
:10194000584602F0AFFA00B905E0601CC4B2764810
:1019500000788442D5DB00BF73480078844203DB03
:1019600072A0FFF771FAAAE70698401C0FD06849E9
:1019700051F8340073A1FFF75AFD0646B01C0AD097
:101980000698B04207D070A0FFF75EFA97E72046AE
:10199000FFF712FD93E706980B2873D2DFE800F0FB
:1019A000060D151E27323F4E5F738800584901EB24
:1019B000C40148688047814695E0554A02EBC4025D
:1019C00007985168884781468DE0514B03EBC4036B
:1019D000DDE907015A689047814684E04C4F07EBE8
:1019E000C40707A807C87B68984781467BE0DFF8F3
:1019F00020C10CEBC40C07A80FC8DCF80470B84772
:101A0000814670E00B980090DFF804C10CEBC40C29
:101A100007A80FC8DCF80470B847814663E0DDE929
:101A20000B01CDE90001DFF8E8C00CEBC40C07A8FE
:101A30000FC8DCF80470B847814654E0DDE90B12AA
:101A40000D98CDE900120290DFF8C4C00CEBC40C75
:101A500007A80FC8DCF80470B847814643E0DDE909
:101A60000B13DDE90D02CDE90013CDE90202DFF829
:101A7000A0C00CEBC40C07A80FC8DCF80470B84772
:101A8000814630E02BE0DDE90C23DDE90E10CDE9E5
:101A90000123CDE903100B980090DFF874C00CEB24
:101AA000C40C07A80FC8DCF80470B84781461AE0D8
:101AB000DDE90D23DDE90F01CDE90223CDE90401C4
:101AC000DDE90B01CDE90001DFF844C00CEBC40CEB
:101AD00007A80FC8DCF80470B847814603E01EA0D1
:101AE000FFF7B2F900BF00BF4A4649461FA0FFF703
:101AF000ABF900BFE3E60000282C2922000000001B
:101B00006572723A666D74206572720A0000000098
:101B1000300000206572723A73797374656D2063CA
:101B20006D64206572720A00A80000206572723A26
:101B30006E6F7420796F752077616E7465642063B1
:101B40006D640A00282C29006572723A7061726116
:101B50006D206572720A00006572723A706172617E
:101B60006D73206E756D206572720A003D307825A8
:101B70003038782C25643B0A000000000CB50020AA
:101B8000019000906B48006840F48030694908601B
:101B900000BF6848006800F4003000900198401CC5
:101BA0000190009818B90198B0F5A06FF1D1614883
:101BB000006810F4003F02D00120009001E00020F6
:101BC00000900098012842D15B48006840F0100066
:101BD000594908600846006820F00300086008467C
:101BE000006840F00200086052484068514948606F
:101BF0000846406848600846406840F48060486095
:101C00000846406820F47C1048600846406840F46C
:101C1000E81048600846006840F08070086000BF27
:101C20004448006810F0007FFAD04248406820F035
:101C30000300404948600846406840F002004860A0
:101C400000BF3C48406800F00C000828F9D10CBDEA
:101C500010B5FFF793FF10BD10B53648006840F08F
:101C60000100344908600846406834490840314959
:101C7000486008460068324908402E490860084616
:101C8000006820F4802008600846406820F4FE00C8
:101C900048604FF41F008860FFF7DAFF4FF00060E4
:101CA0002849086010BD10B5002100200022214BFA
:101CB0005B6803F00C0121B1042906D0082928D162
:101CC00007E0214B214C236027E01F4B1F4C236072
:101CD00023E0184B5B6803F47010164B5B6803F449
:101CE0008032022303EB904022B9194B4343174C37
:101CF00023600DE00F4B5B6813F4003F04D0144BDE
:101D00004343124C236003E00F4B43430F4C2360CB
:101D100003E00D4B0D4C236000BF00BF054B5B681B
:101D2000C3F303130B4CE15C084B1B68CB40074C1F
:101D3000236010BD00100240002002400000FFF8A8
:101D4000FFFFF6FE08ED00E000127A00AC00002074
:101D500000093D00B00000200948804709480047BD
:101D6000FEE7FEE7FEE7FEE7FEE7FEE7FEE7FEE74B
:101D7000FEE7FEE704480549054A064B70470000A8
:101D8000591C000831010008C8530020C859002020
:101D9000C8550020C85500201CB501214FF0C05087
:101DA00001F0F5FC012001F020FB01F023FA0120F5
:101DB00001F050FC00BF412001F0B5FB0028FAD033
:101DC0004FF4807001F05FFC012001F062FC01F033
:101DD0009DFD47F6FF7001F06BFD01F08FFD0121C5
:101DE000022001F02FFD01F089FD29208DF804006B
:101DF0000A208DF8050000208DF8060001208DF8DE
:101E0000070001A801F08DF94FF4003001F0D9FA74
:101E10004FF40030009000208DF8040008208DF869
:101E2000050001208DF80600684601F053FA1CBD3C
:101E30002DE9F04107460D462878032817D004DC29
:101E400001280ED0022814D10FE0042807D00A2858
:101E50000FD16E683046FFF717FD01240BE0012417
:101E600009E0FFF799FF012405E0012403E00124C4
:101E700001E0012400BF00BF2046BDE8F08102461A
:101E8000AFF2530090600320704710B50446AFF2E4
:101E90001101204600F039FE10BD10B5022001F0FE
:101EA00059FD88B14FF4003001F08BFA012001F0A8
:101EB000DEFA10B1012001F0E4FA01F01FFD02206A
:101EC00001F058FD01F01AFD10BD70B5044606483A
:101ED00080F8204001F0D6FCC51C284601F0F6FC35
:101EE00001F00CFD70BD0000B051002038B5002598
:101EF00029E005EB4500BF4951F820407CB900209E
:101F0000009001F001F92E23BB4ABCA1BEA0FEF750
:101F10009BFF00BF9DF800000028FBD000BFE576C6
:101F2000002020766076A07605F00700A077E81004
:101F3000E077E17F012088406077A17F0120884021
:101F40002077681CC5B2022DD3DB38BD2DE9F047E0
:101F500004460E4617469846E07E00EB4000A54931
:101F600001EB80054FF0000901F0CEF88146A07E1C
:101F7000297A884205DB484601F0CAF80620BDE808
:101F8000F087B8F1020F12D1617E686800F8316005
:101F9000617E686800EBC1004760607E401C60762F
:101FA000607E297A884212DB002060760FE0207E76
:101FB00008B9287A2076207E401E2076217E686827
:101FC00000F83160217E686800EBC1004760A07EA8
:101FD000401CA076A07E012811D12868407F92493C
:101FE00009780843904908702868C07F8F49085CC9
:101FF0002968097F08432968C97F8C4A505448469C
:1020000001F086F80020BAE770B504460D46164682
:102010000223324629462046FFF798FF70BD70B56F
:1020200004460D4616460123324629462046FFF750
:102030008DFF70BD2DE9F0417D4E346817E0A4F1AD
:1020400010052768E86888B1E868401EE860E8681D
:1020500060B900BFD4E900010860D4E9001048600D
:1020600000BF002204212846FFF7CEFF3C46B442C1
:10207000E5D1BDE8F0812DE9F04104460D46002789
:1020800015B90720BDE8F08101F03EF80746E06889
:1020900078B9E56000BF664841686161206104F17C
:1020A00010006349496808606149486000BF002624
:1020B00000E00726384601F02BF83046E2E770B51D
:1020C0000446002601F020F80646E06858B100BF3B
:1020D000D4E904100160D4E90410486000BF002076
:1020E000E060002500E00825304601F011F82846A0
:1020F00070BD70471CB54FF00009FFF7F7FEC846EA
:102100000DE008EB48003B4951F8204020680021D1
:1021100002682046904708F1010000F0FF08B8F17E
:10212000020FEEDB65E000F0A5FF00F0EDFF814659
:102130003D480078002848D03E483B490978465C35
:102140003A48805D3B49085C00EBC600C7B207EB2C
:102150004700284901EB800507EB470051F8204074
:10216000A07E401EA076A07E88B9E07F2F49085C43
:10217000217F8843E17F2D4A5054E07F1146085C5F
:1021800028B9617F28480078884327490870217E54
:10219000686810F831008DF80000217E686800EB57
:1021A000C10040680190207E401C2076207E297A64
:1021B000884201DB00202076484600F0A9FF206815
:1021C000694642682046904713E0484600F0A0FF69
:1021D000FFF78FFF00F098FF81461348007828B979
:1021E000484600F095FFFEF778F802E0484600F018
:1021F0008FFF98E7000000209E4400086163742070
:10220000213D2030000000002825732920617373D0
:10221000657274206661696C656420617420257341
:102220003A2564200A000000E8000020E9000020B0
:10223000C00000209E430008F8B50446F748006837
:1022400084420FD20020009000F05EFF3223F44A57
:10225000F4A1FBA0FEF7F8FD00BF9DF800000028E8
:10226000FBD000BFFE48006884420FD300200090DE
:1022700000F04AFF3323EA4AFAA1F1A0FEF7E4FD99
:1022800000BF9DF800000028FBD000BF608878B137
:102290000020009000F038FF3423E14AFBA1E8A0C1
:1022A000FEF7D2FD00BF9DF800000028FBD000BF64
:1022B000DA49606809684518AC4215D0688898B951
:1022C000E748006885420FD0F4480068A84201D171
:1022D000F248046068686060D0480068201ACF4AFD
:1022E0006968126811448860CC49A068096846187A
:1022F000A64211D0708878B9E8480068A04201D1A0
:10230000E648066060687060C4480068301AC34AD6
:102310006168126811448860F8BD2DE9F0410546F6
:102320000E46E81D20F0070726F00708B8F1200F39
:1023300009D9A8F12000B84205D3A8EB070020383E
:10234000D749086006E032462946D6A0FEF77CFD54
:10235000BDE8F081B148076000BF00BF04684FF4DA
:10236000F5502080CE480068103060600020A060EA
:102370006080AA49606809680844B94908604FF458
:10238000F550096808800120B54909684880C448AB
:1023900000681030B24909684860C14800681030D0
:1023A000AF49096888609D480068BC49086000BF63
:1023B000CEE72DE9F843054615B90020BDE8F883BE
:1023C000E81D20F00700A84201D000BF01E000BFD7
:1023D00000BFE81D20F00705B1480068854203D919
:1023E00000BF00BF0020E9E7102D00D21025AB4848
:1023F00000688A490968461AD6E088480068841946
:10240000608800287CD106F110006168081AA84293
:1024100076D306F110006168091A05F120008142A7
:102420002DD306F1100000EB05087C48006800EB96
:1024300008070020788060687860BE60C4F8048077
:10244000012060809648796800681030814205D08C
:102450007249786809680844C0F80880A048016893
:1024600005F1100008449E4908609E48006809680C
:10247000884219D29A4800689A49086014E00120FD
:102480006080664960680968611A401A9449096861
:10249000084493490860934800680968884203D259
:1024A0008F4800688F4908604FF4F55020807B48C2
:1024B000006884422FD107E0784800684068574997
:1024C000096808447549086074480068408828B164
:1024D00072480068624909688842EDD16F48006817
:1024E0005F490968884216D06C480068408890B1FE
:1024F0000020009000F008FE4FF480737A4A00E05C
:102500004EE07AA14EA0FEF79FFC00BF9DF80000B0
:102510000028FBD000BF04F110002844504909688E
:10252000884210D90020009000F0EEFD40F2051323
:102530006D4A78A142A0FEF787FC00BF9DF800001D
:102540000028FBD000BF14F0070F10D0002000902F
:1025500000F0DAFD4FF48373634A7E4938A0FEF73A
:1025600073FC00BF9DF800000028FBD000BF14F0F2
:10257000070F10D00020009000F0C6FD40F20713B6
:10258000594A75A12EA0FEF75FFC00BF9DF8000020
:102590000028FBD000BF00BF00BF04F110000DE712
:1025A0001E480068304446683D480068401BB04201
:1025B0003FF623AF002001E738B5054605B938BD21
:1025C00015F0070F10D00020009000F09DFD4FF493
:1025D000D2736C4A6CA11AA0FEF736FC00BF9DF8BE
:1025E00000000028FBD000BF0C480068854203D3E0
:1025F0001B48006885420FD30020009000F084FD46
:1026000040F2A5135F4A534948310DA0FEF71CFC68
:1026100000BF9DF80000CFE0D2E00000F4000020F1
:10262000AC4400082875696E74385F74202A296DDF
:10263000656D203E3D20686561705F7074720000BA
:102640002825732920617373657274206661696C33
:1026500065642061742025733A2564200A00000017
:10266000F80000202875696E74385F74202A296D7F
:10267000656D203C202875696E74385F74202A29A6
:10268000686561705F656E64000000006D656D2DAA
:102690003E75736564203D3D20300000FC00002045
:1026A000000100206D656D20696E69742C206572D3
:1026B000726F7220626567696E206164647265730F
:1026C0007320307825782C20616E6420656E64203C
:1026D0006164647265737320307825780A000000A5
:1026E0000401002008010020B744000828286C6677
:1026F000726565203D3D20686561705F656E642987
:10270000207C7C2028216C667265652D3E75736582
:10271000642929002875696E7433325F74296D65E8
:102720006D202B2053495A454F465F535452554311
:10273000545F4D454D202B2073697A65203C3D2028
:102740002875696E7433325F7429686561705F65DE
:102750006E640000C844000828282875696E743328
:10276000325F74296D656D29202620284D454D5F07
:10277000414C49474E5F53495A452D312929203D47
:102780003D203000BF44000828282875696E743346
:10279000325F7429726D656D29202620284D454DC4
:1027A0005F414C49474E5F53495A452D31292920F5
:1027B0003D3D20300000000000283FF42AAF00BF5C
:1027C00075480068854203D374480068854202D387
:1027D00000BF00BFF3E6A5F1100400BF00BF608892
:1027E00088B90020009000F08FFC4FF4DF736C4A32
:1027F0006CA1AFF2B410FEF727FB00BF9DF80000FC
:102800000028FBD000BF2088B0F5F55F11D0002074
:10281000009000F079FC40F2BF13614A64A1AFF26E
:10282000E010FEF711FB00BF9DF800000028FBD070
:1028300000BF00206080208064480068844201D28C
:1028400062480460544960680968611A401A604926
:102850000968081A5E4908602046FFF7EDFC00BFD2
:10286000ADE62DE9F05F06460C46E01D20F00704BA
:1028700058480068844204D900BF00BF0020BDE86A
:10288000F09F1EB92046FFF794FDF8E74248006824
:10289000864203D341480068864201D33046EEE7C2
:1028A000A6F110083C480068A8EB0009D8F804001D
:1028B000A0EB0900A0F11007A74201D13046DEE7E6
:1028C00004F11C00B8422AD2381B41490968081A91
:1028D0003F49086009F1100000EB040A2E48006827
:1028E00000EB0A054FF4F550288000206880D8F8E6
:1028F00004006860C5F80890C8F804A03548696805
:1029000000681030814205D023496868096808448E
:10291000C0F808A02846FFF78FFC3046AFE72046F6
:10292000FFF747FD8346BBF1000F0CD0A74201D251
:10293000384600E0204602463146584601F0FDFA8E
:102940003046FFF739FE584699E770B504460D4604
:1029500004FB05F0FFF72DFD064626B104FB05F14B
:10296000304601F03EFB304670BD10B510220C2100
:1029700019A0FEF769FA1748016822A0FEF764FA69
:102980001348016824A0FEF75FFA2848016828A0D0
:10299000FEF75AFA10BD0000F4000020F8000020F5
:1029A000BF4400086D656D2D3E75736564000000C1
:1029B0006D656D2D3E6D61676963203D3D20484525
:1029C00041505F4D4147494300000000FC0000209A
:1029D0000401002000010020737472756374206884
:1029E0006561705F6D656D3D25642C204D494E5FBE
:1029F00053495A455F414C49474E45443D25640A79
:102A000000000000746F74616C206D656D6F7279E9
:102A10003A2025640A00000075736564206D656DB9
:102A20006F7279203A2025640A0000000801002016
:102A30006D6178696D756D20616C6C6F6361746533
:102A400064206D656D6F72793A2025640A0000007C
:102A5000F8B504460E46A06878B90020009000F052
:102A600053FB1023F74AF8A1F8A0FEF7EDF900BFD9
:102A70009DF800000028FBD000BF31462046A26828
:102A800090470546032D0FD00020009000F03CFB3E
:102A90001623EC4AECA1EDA0FEF7D6F900BF9DF895
:102AA00000000028FBD000BFF0492046A2689047F4
:102AB000A0686060F8BDF8B504460E46D4E901018F
:102AC00088420FD00020009000F01EFB2A23E84A25
:102AD000DDA1DEA0FEF7B8F900BF9DF800000028D8
:102AE000FBD000BF31462046626890470546032D63
:102AF0000AD1DE490831204662689047DB4920460A
:102B0000A2689047A0686060F8BDDA4A02600022BF
:102B1000426081607047024600BF00BF02207047DC
:102B20002DE9F04188B0044688466668A06878B907
:102B30000020019000F0E8FA5223CF4AC2A1C3A0BE
:102B4000FEF782F900BF9DF804000028FBD000BF0B
:102B5000AFF23D0086420FD00020019000F0D4FA81
:102B60005723C54AB8A1B9A0FEF76EF900BF9DF87A
:102B700004000028FBD000BF41462046A2689047D1
:102B80000746032F0FD00020019000F0BDFA5D230F
:102B9000B94AADA1ADA0FEF757F900BF9DF80400FA
:102BA0000028FBD000BF00BF0025A0680290AF49FD
:102BB00008392046A26890470AE0681C45B202A97D
:102BC000A06841F82500A94908392046A268904725
:102BD000A068B042F1D10298A060062D0FDB002062
:102BE000019000F091FA7323A34A97A197A0FEF7F2
:102BF0002BF900BF9DF804000028FBD000BF00BFE8
:102C000002A850F82520994920469047681E45B2F1
:102C1000002DF5DA029E954910312046B047032871
:102C2000C2D06660A66008B0BDE8F0812DE9F0472B
:102C300088B004468A466568A068A8420FD0002084
:102C4000019000F061FA9C238C4A7FA17FA0FEF7DF
:102C5000FBF800BF9DF804000028FBD000BF00BFB8
:102C6000A76851462046B8478146B9F1050F04D1FF
:102C70007E4908392046B8478146B9F1040FEFD0A4
:102C8000B9F1030F7ED14FF0FF36A0680290039593
:102C90000AE0764908312046A847012803D1734944
:102CA00008392046A847A568BD42F2D1029DAF422F
:102CB00005D16E4908312046B8470026B3E06B497C
:102CC00008392046A847A568AF4201D10026AAE0EE
:102CD000664908392046B847A068A84205D163492B
:102CE00008312046B84700269DE0A0680299884236
:102CF00004D15E4908312046B84794E04FF00008FF
:102D000001260395A568594908392046039A90473A
:102D1000814627E0701C46B202A9A06841F826004F
:102D2000A068B84218D14FF00108062E0FDB002032
:102D3000019000F0E9F9FA23504A43A143A0FEF7BD
:102D400083F800BF9DF804000028FBD000BF701E70
:102D500046B24FF0010905E0444908392046A2680F
:102D600090478146B9F1040FD4D0B8F1000F5AD181
:102D7000062E12DB0020019000F0C6F94FF4857397
:102D80003E4A00E0BBE030A130A0FEF75DF800BF96
:102D90009DF804000028FBD000BF344908312046CC
:102DA000B847B0464FF0020900BF02A850F828000B
:102DB000A84207D14FF00109A8F1010046B24FF037
:102DC000FF3803E0A8F101004FFA80F8B8F1000FD6
:102DD000EBDAB9F1010F26D04FF0020900BF234909
:102DE00008312046A847012803D120490839204648
:102DF000A847A568B04600BF02A850F82800A8421E
:102E000007D1A8F1010046B24FF0FF384FF0010999
:102E100003E0A8F101004FFA80F8B8F1000FEBDAF7
:102E2000B9F1010FDBD107E002A850F826200F49C5
:102E300020469047701E46B2002EF5DA029DA5602E
:102E400057E0000060450008300000002825732985
:102E500020617373657274206661696C65642061BA
:102E6000742025733A2564200A000000D000002059
:102E70006945000878450008804500088945000834
:102E80000026A06802903A492046A268904709E0CF
:102E9000701C46B202A9A06841F8260034492046B9
:102EA000A2689047A068A842F2D10298A060062EBE
:102EB00012DB0020019000F027F94FF4B2732D4A85
:102EC000AFF27C01AFF27C00FDF7BEFF00BF9DF8C2
:102ED00004000028FBD000BF00BF02A850F8262045
:102EE0002349083120469047701E46B2002EF4DA7E
:102EF000029D1F4918312046A8470328C0D06560AD
:102F0000A56008B0BDE8F087F8B504460E46002776
:102F1000D4E90110884211D00020009000F0F4F8AC
:102F20004FF4C373144A15A1AFF2E000FDF78CFF14
:102F300000BF9DF800000028FBD000BF00BFA068C4
:102F4000B04201D1012706E009492046A268904716
:102F50000546022DF3D100BF6068A0603846F8BD79
:102F60000C4A0260AFF2514242608160704700003B
:102F7000C800002089450008954500086D652D3E74
:102F800074656D70203D3D206D652D3E73746174D8
:102F900065000000A84500082DE9F05F06460F46D1
:102FA00091469A46DDF828B0544DD5F800800CE0E3
:102FB000A8F104042068B04205D1207DB84202D1B6
:102FC0000920BDE8F09FD8F80080A845F0D11C206A
:102FD000FFF7EFF904460CB90120F2E726602775E8
:102FE000C4F81890A4F80EA084F80CB000BF69686B
:102FF000A1606560201D69680860686000BF0020EE
:10300000DFE72DE9F04106460F46DFF8F080D8F8FB
:10301000005015E02C1F2068B04210D1207DB8422E
:103020000DD100BFD4E901100160D4E9011048605E
:1030300000BF2046FFF7C0FA0020BDE8F0812D68F0
:103040004545E7D10820F8E770B503460C4615461C
:103050002A4E32680AE0111F0868984205D1087D9F
:10306000A04202D10D73002070BD1268B242F2D1AD
:103070000320F9E72DE9F04121480068214909685A
:10308000884209D01E4800681E490968471A1C4832
:1030900000681C49086001E0BDE8F081174E356802
:1030A00025E02C1FD5F80080207B10F0010F1DD0EB
:1030B000E089B84203D9E089C01BE08116E0217D98
:1030C000A2692068FEF7A0FF207B10F0020F02D05B
:1030D000208AE0810AE000BFD4E901100160D4E950
:1030E0000110486000BF2046FFF766FA4546B5422A
:1030F000D7D100BFD0E70146002070470C01002067
:103100001C0000201C010020EFF3108072B67047F5
:1031100080F310887047000031490143314A116043
:10312000704770B5002100230F22C4780CB32D4CDA
:10313000246804F4E064C4F5E064210AC1F10403E6
:10314000CA40447804FA03F1847814402143090109
:10315000254C0678A155047804F01F050124AC40E5
:1031600005786D114FF0E02606EB8505C5F80041A6
:1031700009E0047804F01F050124AC401B4D0678DB
:10318000761145F8264070BD194A0A400243154B96
:103190001B1F1A60704739B1124A121D1268024390
:1031A000104B1B1D1A6006E00E4A121D1268824366
:1031B0000C4B1B1D1A607047042808D14FF0E0210A
:1031C000096941F004014FF0E022116107E04FF07E
:1031D000E021096921F004014FF0E02211617047FC
:1031E0000000FA050CED00E000E400E080E100E002
:1031F00080FFFF1F10B5012000F0F0FA002000F062
:10320000EDFA10BD2A49086070472949091F086076
:103210007047274984310860704701460020254ADD
:1032200010884FF67F4210400843224A10807047B2
:10323000014600201F4A10884FF680721040084354
:103240001C4A1080704708B500220092194A2C3A97
:103250000092009A02440092009A116008BD08B5DD
:1032600001460020009013482C3800900098084434
:1032700000900098008808BD0D489C300068C0B2DE
:1032800070470C480830008840F0010009490831B7
:10329000088070470648A0300068C0B270470548F3
:1032A0000830008840F00200024908310880704769
:1032B00004860D422C6C0040002044490860091D22
:1032C0000860091D0860091D086041483F49143124
:1032D0000860704700213D498279002A3AD00A46A9
:1032E000126803689A430B461A600A1D1268036845
:1032F0009A430B1D1A60027911440A6803681A4345
:103300000A60324A0832126803689A432F4B083326
:103310001A601A1D126803689A432C4B0C331A600A
:103320004279102A0ED11A1F126803681A43274BDC
:1033300008331A601A1D126803681A43234B0C33B2
:103340001A600DE02149427911440A6803681A4362
:103350000A6005E0027911440A6803689A430A602A
:1033600070470021016001710C21417100218171C0
:1033700070471649103109680143144A1032116030
:10338000704701460020114A143212680A4201D0E7
:10339000012000E0002070470C491431086070479C
:1033A000014600200022094B1B6803EA0102074B7B
:1033B00014331B680B4202D00AB1012000E0002048
:1033C0007047024914310860704700000004014052
:1033D000FFFF0F0010B50121080700F0F2F90021EE
:1033E0004FF0805000F0EDF910BD29490862704798
:1033F00027490861704701460020264A106820F0DE
:10340000E00008431060704723490860704710B51A
:10341000024600201F4B186820F00300104318607C
:103420001E4B1B6843F004031C4C2360012901D18F
:1034300030BF00E020BF194B1B6823F00403174C7A
:10344000236010BD1348006840F004001149086073
:103450000846006840F0020008601048006840F02C
:1034600004000E49086000BF00BF30BF704701462E
:103470000020084A52680A4201D0012000E00020E2
:1034800070470449096841EA8001024A11607047A7
:1034900000000E4200700040A0000E4210ED00E05F
:1034A000DD48006840F00100DB49086008464068DC
:1034B000DA490840D849486008460068D8490840B9
:1034C000D54908600846006820F480200860084656
:1034D000406820F4FE0048604FF41F008860704789
:1034E000CD49096821F48031CB4A11601146096841
:1034F00021F480211160B0F5803F03D0B0F5802F1A
:103500000ED106E0C449096841F48031C24A116015
:1035100007E0C149096841F4A021BF4A116000E0F9
:1035200000BF00BF704710B50146002200230020F5
:103530004A11012A02D1B84C236806E0022A02D1BE
:10354000B54C236A01E0B44C636A01F01F02012408
:1035500094401C4201D0012000E0002010BD38B58D
:10356000002000900024002500BF3120FFF7DBFF82
:1035700005460098401C00900098B0F5A06F01D05F
:10358000002DF2D03120FFF7CEFF08B1012400E07A
:103590000024204638BD014600209F4A106820F0D4
:1035A000F80040EAC100106070479E49086070470B
:1035B00002460020984B586820F47C1042EA010330
:1035C0001843954B58607047964908667047014606
:1035D0000020914A506820F0030008435060704773
:1035E0008D48406800F00C007047014600208A4A70
:1035F000506820F0F00008435060704701460020FA
:10360000854A506820F4E0600843506070470146E6
:103610000020814A506820F4605040EAC1005060A8
:10362000704729B17C4A527A02437B4B5A7204E0BC
:10363000794A527A8243784B5A7270477A490860C5
:10364000704701460020744A506820F44040084307
:10365000506070470021754A11706F4A82F820103F
:10366000012802D0042808D103E001216F4A11701B
:1036700004E005216D4A117000E000BF00BF7047F3
:103680006B49086070476449096A0143624A1162E4
:103690007047674944390860704730B500210022FF
:1036A000002400235C4D6D6805F00C0121B1042954
:1036B00005D0082923D105E05E4D056022E05D4D6F
:1036C00005601FE0544D6D6805F47012524D6D6831
:1036D00005F48034022505EB92421CB9564D554342
:1036E00005600BE04C4D6D6815F4003F03D0524D62
:1036F0005543056002E04F4D5543056002E04D4DD6
:10370000056000BF00BF444D6D6805F0F001090978
:103710004A4D6B5C0568DD4045603F4D6D6805F4C2
:10372000E061090A454D6B5C4568DD4085603A4DB6
:103730006D6805F46051C90A404D6B5C4568DD4019
:10374000C560354D6D6805F44041890B3C4D6B5C9F
:10375000C568B5FBF3F5056130BD29B12E4A526944
:1037600002432D4B5A6104E02B4A526982432A4B93
:103770005A61704729B1284A92690243264B9A61DF
:1037800004E0254A92698243234B9A61704729B12C
:10379000214AD2690243204BDA6104E01E4AD26911
:1037A00082431D4BDA61704729B11B4AD26802433C
:1037B000194BDA6004E0184AD2688243164BDA608B
:1037C000704729B1144A12690243134B1A6104E08D
:1037D000114A12698243104B1A61704714494039EB
:1037E000086070470F49C86470470B49C87170473B
:1037F0000948406A40F080700749486270470146B6
:103800000020054A92680A4201D0012000E0002011
:103810007047014988727047001002400000FFF8AD
:10382000FFFFF6FE00004242D80042422010024054
:103830008004424200127A0000093D00200100206D
:103840003001002029B14F4A128802434D4B1A80A3
:1038500004E04C4A128882434A4B1A807047494818
:10386000001D008840F010004649091D088070477F
:103870004448001D00884FF6EF7108404149091D7A
:103880000880704700213F481C300188001F0088D5
:1038900041EA0040704700B50246FFF7E0FF100C18
:1038A000384918310880091D0A80FFF7E1FF00BD83
:1038B00000B50246FFF7D3FFC2F303403149083198
:1038C0000880091D0A80FFF7D3FF00BD00B502463E
:1038D000FFF7C5FF100C2B4920310880091D0A8015
:1038E000FFF7C6FF00BD00202649103109880907EF
:1038F000080B2449143109880843704700BF214848
:10390000001D008810F0200FF9D070471D48001DE1
:1039100000884FF6F77108401A49091D088000BF5A
:103920001848001D008810F0080FF9D070470146B4
:103930000020144A121D12880A4201D0012000E022
:10394000002070470F49091D098881430D4A121D47
:1039500011807047014600200A4A121D12880A4051
:10396000D0B2084A12880A4202D008B1012000E011
:10397000002070470349091D09888143014A121D2F
:10398000118070470028004010B50446FB4884426F
:1039900009D101218803FFF707FF00214FF4804080
:1039A000FFF702FF32E0F648844209D101214804C2
:1039B000FFF707FF00214FF40030FFF702FF25E07B
:1039C000F048844209D101218804FFF7FAFE002162
:1039D0004FF48020FFF7F5FE18E0EB48844209D150
:1039E0000121C804FFF7EDFE00214FF40020FFF78E
:1039F000E8FE0BE0E548844208D101210805FFF705
:103A0000E0FE00214FF48010FFF7DBFE10BD2DE932
:103A1000F04786B005460E460024A24600BFA146E8
:103A20000027B08900B100BF2F462C8A4CF6FF70EA
:103A30000440F08804432C82AC894EF6F310044015
:103A4000B08831890843718908430443AC81AC8A4A
:103A50004FF6FF400440B0890443AC8201A8FFF751
:103A60001CFEC648874202D1DDF810A001E0DDF857
:103A70000CA0A88910F4004F08D00AEBCA0000EB94
:103A80000A1031684900B0FBF1F807E00AEBCA0000
:103A900000EB0A1031688900B0FBF1F86420B8FB34
:103AA000F0F004012009642101FB1089A88910F4B9
:103AB000004F08D0322000EBC900B0FBF1F000F05D
:103AC0000700044308E0322000EB09106421B0FB3A
:103AD000F1F000F00F0004432C8106B0BDE8F08740
:103AE0004FF41651016000218180C18001810C21B9
:103AF000418100218181704710B502460020108A63
:103B00004FF2FF0318400B884C8823438C882343D3
:103B1000CC8823431843108210BD002101804180CE
:103B20008180C180704721B1828942F40052828134
:103B300004E082894DF6FF731A4082817047F0B528
:103B400003460024002600250020A1F510676A3FE7
:103B500000D100BF1846C1F3421401F01F0601272F
:103B600007FA06F5012C01D10C3004E0022C01D13A
:103B7000103000E014301AB107682F43076002E0EC
:103B80000768AF430760F0BD1AB1838A0B43838295
:103B900002E0838A8B4383827047028A4FF6F07378
:103BA0001A400282028A0A430282704782894FF2D7
:103BB000FF731A40828182890A438281704721B152
:103BC000828942F00202828104E082894FF6FD730D
:103BD0001A4082817047028A4FF6DF731A400282D0
:103BE000028A0A430282704721B1028A42F480426B
:103BF000028204E0028A4BF6FF731A400282704789
:103C0000C1F308028280704701468888C0F308002B
:103C10007047818941F0010181817047028BD2B2E6
:103C20000283028B42EA012202837047028B02F474
:103C30007F420283028B0A430283704721B1828A4A
:103C400042F02002828204E0828A4FF6DF731A403B
:103C50008282704721B1828A42F01002828204E09F
:103C6000828A4FF6EF731A408282704721B1828AAE
:103C700042F00802828204E0828A4FF6F7731A400B
:103C80008282704721B1828942F40042828103E03E
:103C90008289C2F30E028281704721B1828A42F486
:103CA0000062828204E0828A4FF2FF731A408282AD
:103CB0007047828A4FF6FB731A408282828A0A43D7
:103CC0008282704721B1828A42F00202828204E03D
:103CD000828A4FF6FD731A408282704702460020A6
:103CE000B1F5007F00D100BF13880B4201D0012045
:103CF00000E00020704701F40072B2F5007F00D1AF
:103D000000BFCA430280704770B5024600240023FA
:103D100000250020A1F510666A3E00D100BFC1F366
:103D2000421501F01F03012606FA03F3012D02D10B
:103D30009689334006E0022D02D1168A334001E015
:103D4000968A33400C12012606FA04F41688344091
:103D500013B10CB1012000E0002070BD10B50022AD
:103D60000023A1F510646A3C00D100BF0A120124AF
:103D70009440A3B2DC43048010BD00000038014031
:103D80000044004000480040004C0040005000400B
:103D900010B500F073F9001D10BD00BF0105000053
:103DA0002DE9F04791460F4680460446002614F858
:103DB000015B2DB1FFF7ECFF0068405DC007F6D155
:103DC0002B2D02D02D2D18D0641E4A463946204690
:103DD00000F05CF927B13968A14201D1C7F8008031
:103DE0004FF0020471050BD54042002803DD00F0BE
:103DF00049F90460A007BDE8F08746F48066E4E76F
:103E00000028F8DA00F03EF904606FF00040F2E7B5
:103E1000401ECAB210F8011F8A4202D00029F9D10F
:103E20000020704710B504780CB10A4603E000206A
:103E300010BDA342FCD012F8013B002BF9D1401C6D
:103E4000F1E730B505460B462A4613F8014B12F848
:103E5000010B08B1A042F8D01CB1002802D06D1CA3
:103E6000F1E7284630BD10B5431C02E010F8011BF5
:103E700071B18107FAD14FF0013202C88C1A8C431C
:103E800014EAC211F9D0C01A0A0603D0C01E10BD30
:103E9000C01A10BD0A0401D0801E10BD0902FCD05A
:103EA000401E10BD40EA010370B59B072ED14FF0B4
:103EB0000136042A2AD308C810C9121F9D1B9D432E
:103EC00015EAC61517D0D8B2E1B2401A50EA05611A
:103ED00010D198B2A1B2401A50EA05410AD123F09C
:103EE0007F4024F07F41401A50EA052102D1180E8C
:103EF000A0EB146070BDA342DBD018BA21BA88428F
:103F000001D9012070BD4FF0FF3070BD0AB900200B
:103F100070BD10F8013B11F8014B63B1A3420AD107
:103F2000521E08D010F8013B11F8014B1BB1A342FF
:103F300001D1521EEDD1181B70BD032A40F2308012
:103F400010F0030C00F0158011F8013BBCF1020FDA
:103F5000624498BF11F801CB00F8013B38BF11F85B
:103F6000013BA2F1040298BF00F801CB38BF00F872
:103F7000013B11F0030300F0D880083AC0F008803C
:103F800051F8043B083A51F804CBA0E80810F5E7D3
:103F9000121D5CBF51F8043B40F8043BAFF30080B6
:103FA000D20724BF11F8013B11F801CB48BF11F82B
:103FB000012B24BF00F8013B00F801CB48BF00F8FB
:103FC000012B704701B5FFF7B8FF01BD01F0FF03FA
:103FD000114601B543EA032242EA024200F003F827
:103FE00001BD4FF000020429C0F0128010F0030C54
:103FF00000F01B80CCF1040CBCF1020F18BF00F8DC
:10400000012BA8BF20F8022BA1EB0C0100F00DB88A
:104010005FEAC17C24BF00F8012B00F8012B48BFE8
:1040200000F8012B70474FF0000200B5134694468C
:104030009646203922BFA0E80C50A0E80C50B1F100
:104040002001BFF4F7AF090728BFA0E80C5048BF14
:104050000CC05DF804EB890028BF40F8042B08BFB2
:10406000704748BF20F8022B11F0804F18BF00F8AE
:10407000012B704770477047704700000048704739
:104080008453002000487047645300202DE9F05FFE
:10409000824615468B4600270AF10104B94600788E
:1040A000302801D09DB113E014F8010B01277828C6
:1040B00003D0582801D045B10AE00DB1102D07D129
:1040C000002714F8010B102502E0082500E00A255E
:1040D0000026B0460EE005FB080005FB06F10127AF
:1040E0001FFA80F801EB1046B6F5803F00D3B946C1
:1040F00014F8010B294600F04FF80028EBDABBF169
:10410000000F05D00FB1641E00E05446CBF800400C
:10411000B9F1000F06D0FFF7B5FF02210160C81EFC
:10412000BDE8F09F48EA0640FAE710B5203AC0F033
:104130000B80B1E81850203AA0E81850B1E81850A8
:10414000A0E81850BFF4F5AF5FEA027C24BFB1E8E5
:104150001850A0E8185044BF18C918C0BDE8104056
:104160005FEA827C24BF51F8043B40F8043B08BF5F
:104170007047D20728BF31F8023B48BF11F8012B26
:1041800028BF20F8023B48BF00F8012B7047000011
:1041900000487047645300203A2800D2303820F09D
:1041A0002002412A01D3A2F13700884201D34FF007
:1041B000FF3070474FF0013C50F8042B51F8043B9E
:1041C0009A4221D1A2EB0C03934313EACC1317D1EB
:1041D00050F8042B51F8043B9A4215D1A2EB0C0382
:1041E000934313EACC130BD150F8042B51F8043B42
:1041F0009A4209D1A2EB0C03934313EACC13DBD010
:104200004FF00000704700BFD01A01BAB1FA81F137
:1042100001F0180122FA01F0CB40C1F12001DBB21C
:10422000C0B2C01A2CFA01F3D11A914311EAC3119A
:10423000E6D170477546FFF7ABFFAE46050069460D
:10424000534620F00700854618B020B5FDF792FDD3
:10425000BDE820404FF000064FF000074FF0000887
:104260004FF0000B21F00701AC46ACE8C009ACE808
:10427000C009ACE8C009ACE8C0098D4670470446E7
:10428000AFF300802046FBF7C3FF00000149182070
:10429000ABBEFEE7260002007047000010B5002903
:1042A0000AD00878002807D005487844FFF782FF35
:1042B000002801D0002010BD0248784410BD000045
:1042C0001A050000120500002D2D2D2D2D2D2D2D50
:1042D0002D2D2D2D2D2D2D2D2D2D2D2D2D2D2D2D0E
:1042E0002D2D2D2D2D2D2D2D2D2D2D2D2D2D2D2DFE
:1042F0002D2D2D2D2D0A66636D642056302E303302
:1043000020207A7270656E670A557365643A0A20D8
:1043100020646F5F6D656D5F6D642830783030317B
:1043200034313238302C203531322C2031290A20DA
:10433000206D656D736574283078303031343132DA
:1043400038302C2036352C20353132290A20206D8A
:10435000616C6C6F632831303234290A2020667218
:1043600065652830783030313431323830290A2DC3
:104370002D2D2D2D2D2D2D2D2D2D2D2D2D2D2D2D6D
:104380002D2D2D2D2D2D2D2D2D2D2D2D2D2D2D2D5D
:104390002D2D2D2D2D2D2D2D2D2D2D2D0A000000F7
:1043A00001000200010003000100020001000400FE
:1043B00001000200010003000100020001000500ED
:1043C00001000200010003000100020001000400DE
:1043D00001000200010003000100020001000600CC
:1043E00001000200010003000100020001000400BE
:1043F00001000200010003000100020001000500AD
:10440000010002000100030001000200010004009D
:10441000010002000100030001000200010007008A
:10442000010002000100030001000200010004007D
:10443000010002000100030001000200010005006C
:10444000010002000100030001000200010004005D
:10445000010002000100030001000200010006004B
:10446000010002000100030001000200010004003D
:10447000010002000100030001000200010005002C
:10448000010002000100030001000200010004001D
:104490000100020001000300010002000100657636
:1044A000656E745F696E697400000000706C7567FA
:1044B0005F686F6C6573006D6D616C6C6F63006D30
:1044C00066726565000000002875696E7433325F9E
:1044D0007429282875696E74385F74202A296D65DF
:1044E0006D202B2053495A454F465F535452554334
:1044F000545F4D454D292025204D454D5F414C4988
:10450000474E5F53495A45203D3D20300000000092
:104510002875696E74385F74202A29726D656D2064
:104520003E3D202875696E74385F74202A296865BD
:1045300061705F707472202626202875696E743849
:104540005F74202A29726D656D203C202875696E84
:1045500074385F74202A29686561705F656E640035
:1045600066736D5F696E69740066736D5F6578650B
:104570006375746500000000512A0008B72A00081E
:1045800068736D5F696E69740068736D5F657865E7
:10459000637574650069735F68736D5F696E5F73DF
:1045A0007461746500000000212B00082D2C0008A8
:1045B00063686172202A73747273747228636F6EF9
:1045C00073742063686172202A73312C20636F6ECC
:1045D00073742063686172202A73322900766F69D0
:1045E00064206D656D5F696E666F28766F696429FA
:1045F000006C6F6E6720737472746F6C28636F6EDB
:1046000073742063686172202A6E7074722C206348
:10461000686172202A2A656E647074722C20696E3B
:104620007420626173652900766F6964202A6D6366
:10463000616C6C6F632875696E7433325F742063CC
:104640006F756E742C2075696E7433325F742073CD
:10465000697A652900766F6964202A6D6D616C6CDA
:104660006F632875696E7433325F742073697A657D
:104670002900696E7420636D7028766F6964202A42
:1046800061646472312C20766F6964202A616464ED
:1046900072322C20696E7420656C656D5F636E7478
:1046A0002C20696E7420656C656D5F73697A65296D
:1046B00000766F6964206D6428696E74206164649B
:1046C000722C20696E7420656C656D5F636E742C4E
:1046D00020696E7420656C656D5F73697A65290069
:1046E000766F6964202A6D7265616C6C6F632876E1
:1046F0006F6964202A726D656D2C2075696E743344
:10470000325F74206E657773697A652900766F6908
:1047100064206D6672656528766F6964202A726D03
:10472000656D2900766F6964202A6D656D63707907
:1047300028766F6964202A73312C20636F6E73743E
:1047400020766F6964202A73322C2073697A655F42
:1047500074206E2900766F6964206D656D736574D1
:1047600028766F6964202A732C20696E7420632C6C
:104770002073697A655F74206E2900766F69642002
:104780007766695F656E61626C652875696E7438FD
:104790005F7420656E290068656C700061646472E6
:1047A000006C7300D44800080000002034010000B1
:1047B0006C0100087849000834010020945800007A
:1047C000C80100081001000043000000F8FFFFFFCF
:1047D0000040404040404040404041414141414014
:1047E00040404040404040404040404040404040C9
:1047F0004005020202020202020202020202020258
:10480000022020202020202020202002020202025C
:1048100002029090909090901010101010101010B4
:1048200010101010101010101010101002020202C0
:104830000202888888888888080808080808080804
:104840000808080808080808080808080202020200
:104850004000000000000000000000000000000018
:104860000000000000000000000000000000000048
:104870000000000000000000000000000000000038
:104880000000000000000000000000000000000028
:104890000000000000000000000000000000000018
:1048A0000000000000000000000000000000000008
:1048B00000000000000000000000000000000000F8
:1048C00000000000000000000000000000000000E8
:1048D0000000000013B0511B20D40432321A3408F7
:1048E0001A5404021B0313A14742085A9C085A9702
:1048F0000813B1461408D1101B08720813DF111BEE
:1049000008551813CD3F1B0824081AC50813F14594
:104910001408A13D1B08B0081B433E20192813B3FF
:10492000231B08E0081363281B082808134B291BC6
:10493000080D3013B9251B08DD281A6B101A7B10DF
:1049400013CB1E43080F84A24A04200A0102030469
:1049500006070809C02A20047918717202091ACCC6
:104960000110130C012A20045A1404A96C69700563
:0849700000020406080000002B
:0400000508000131BD
:00000001FF
